:100000000C9434000C943E000C943E000C943E0082
:100010000C943E000C943E000C943E000C943E0068
:100020000C943E000C943E000C943E000C943E0058
:100030000C943E000C943E000C943E000C943E0048
:100040000C943E000C943E000C943E000C943E0038
:100050000C943E000C943E000C943E000C943E0028
:100060000C943E000C943E0011241FBECFEFD8E04C
:10007000DEBFCDBF0E9440000C9466000C940000CF
:1000800084B1876084B915B821E092E084E025B995
:100090003FEF4FE355E6315040405040E1F700C09C
:1000A000000095B93FEF4FE753E4315040405040D6
:1000B000E1F700C0000085B93FEF4FEB58EA31503F
:1000C00040405040E1F700C00000E1CFF894FFCF7E
:00000001FF
